{
  "contractName": "Decentragram",
  "abi": [
    {
      "inputs": [],
      "stateMutability": "nonpayable",
      "type": "constructor"
    },
    {
      "anonymous": false,
      "inputs": [
        {
          "indexed": false,
          "internalType": "uint128",
          "name": "id",
          "type": "uint128"
        },
        {
          "indexed": false,
          "internalType": "string",
          "name": "hash",
          "type": "string"
        },
        {
          "indexed": false,
          "internalType": "string",
          "name": "description",
          "type": "string"
        },
        {
          "indexed": false,
          "internalType": "uint256",
          "name": "tipAmount",
          "type": "uint256"
        },
        {
          "indexed": false,
          "internalType": "address",
          "name": "author",
          "type": "address"
        }
      ],
      "name": "ImageCreated",
      "type": "event"
    },
    {
      "anonymous": false,
      "inputs": [
        {
          "indexed": false,
          "internalType": "uint128",
          "name": "id",
          "type": "uint128"
        },
        {
          "indexed": false,
          "internalType": "string",
          "name": "hash",
          "type": "string"
        },
        {
          "indexed": false,
          "internalType": "string",
          "name": "description",
          "type": "string"
        },
        {
          "indexed": false,
          "internalType": "uint256",
          "name": "tipAmount",
          "type": "uint256"
        },
        {
          "indexed": false,
          "internalType": "address",
          "name": "author",
          "type": "address"
        }
      ],
      "name": "ImageTipped",
      "type": "event"
    },
    {
      "inputs": [],
      "name": "imageCount",
      "outputs": [
        {
          "internalType": "uint128",
          "name": "",
          "type": "uint128"
        }
      ],
      "stateMutability": "view",
      "type": "function"
    },
    {
      "inputs": [
        {
          "internalType": "uint128",
          "name": "",
          "type": "uint128"
        }
      ],
      "name": "images",
      "outputs": [
        {
          "internalType": "uint128",
          "name": "id",
          "type": "uint128"
        },
        {
          "internalType": "string",
          "name": "hash",
          "type": "string"
        },
        {
          "internalType": "string",
          "name": "description",
          "type": "string"
        },
        {
          "internalType": "uint256",
          "name": "tipAmount",
          "type": "uint256"
        },
        {
          "internalType": "address",
          "name": "author",
          "type": "address"
        }
      ],
      "stateMutability": "view",
      "type": "function"
    },
    {
      "inputs": [
        {
          "internalType": "string",
          "name": "_imgHash",
          "type": "string"
        },
        {
          "internalType": "string",
          "name": "_description",
          "type": "string"
        }
      ],
      "name": "uploadImage",
      "outputs": [],
      "stateMutability": "nonpayable",
      "type": "function"
    },
    {
      "inputs": [
        {
          "internalType": "uint128",
          "name": "_id",
          "type": "uint128"
        }
      ],
      "name": "tipImageOwner",
      "outputs": [],
      "stateMutability": "payable",
      "type": "function"
    }
  ],
  "bytecode": "0x608060405260008060006101000a8154816fffffffffffffffffffffffffffffffff02191690836fffffffffffffffffffffffffffffffff16021790555034801561004957600080fd5b50611246806100596000396000f3fe60806040526004361061003f5760003560e01c80632f69e85a1461004457806392053b6314610085578063a91b8314146100b0578063bcd93634146100d9575b600080fd5b34801561005057600080fd5b5061006b60048036038101906100669190610b43565b6100f5565b60405161007c959493929190610c72565b60405180910390f35b34801561009157600080fd5b5061009a610277565b6040516100a79190610cd3565b60405180910390f35b3480156100bc57600080fd5b506100d760048036038101906100d29190610e23565b610297565b005b6100f360048036038101906100ee9190610b43565b6105aa565b005b60016020528060005260406000206000915090508060000160009054906101000a90046fffffffffffffffffffffffffffffffff169080600101805461013a90610eca565b80601f016020809104026020016040519081016040528092919081815260200182805461016690610eca565b80156101b35780601f10610188576101008083540402835291602001916101b3565b820191906000526020600020905b81548152906001019060200180831161019657829003601f168201915b5050505050908060020180546101c890610eca565b80601f01602080910402602001604051908101604052809291908181526020018280546101f490610eca565b80156102415780601f1061021657610100808354040283529160200191610241565b820191906000526020600020905b81548152906001019060200180831161022457829003601f168201915b5050505050908060030154908060040160009054906101000a900473ffffffffffffffffffffffffffffffffffffffff16905085565b60008054906101000a90046fffffffffffffffffffffffffffffffff1681565b60008251116102db576040517f08c379a00000000000000000000000000000000000000000000000000000000081526004016102d290610f48565b60405180910390fd5b600081511161031f576040517f08c379a000000000000000000000000000000000000000000000000000000000815260040161031690610fda565b60405180910390fd5b600073ffffffffffffffffffffffffffffffffffffffff163373ffffffffffffffffffffffffffffffffffffffff16141561035957600080fd5b60008081819054906101000a90046fffffffffffffffffffffffffffffffff168092919061038690611029565b91906101000a8154816fffffffffffffffffffffffffffffffff02191690836fffffffffffffffffffffffffffffffff160217905550506040518060a0016040528060008054906101000a90046fffffffffffffffffffffffffffffffff166fffffffffffffffffffffffffffffffff168152602001838152602001828152602001600081526020013373ffffffffffffffffffffffffffffffffffffffff16815250600160008060009054906101000a90046fffffffffffffffffffffffffffffffff166fffffffffffffffffffffffffffffffff166fffffffffffffffffffffffffffffffff16815260200190815260200160002060008201518160000160006101000a8154816fffffffffffffffffffffffffffffffff02191690836fffffffffffffffffffffffffffffffff16021790555060208201518160010190805190602001906104d8929190610a44565b5060408201518160020190805190602001906104f5929190610a44565b506060820151816003015560808201518160040160006101000a81548173ffffffffffffffffffffffffffffffffffffffff021916908373ffffffffffffffffffffffffffffffffffffffff1602179055509050507fce0b8a3adbc7b7117ebb4af829b6d3d799ae257e72f1962e0d6675aa0f4e12b060008054906101000a90046fffffffffffffffffffffffffffffffff16838360003360405161059e9594939291906110a7565b60405180910390a15050565b6000816fffffffffffffffffffffffffffffffff1611801561060c575060008054906101000a90046fffffffffffffffffffffffffffffffff166fffffffffffffffffffffffffffffffff16816fffffffffffffffffffffffffffffffff1611155b61064b576040517f08c379a000000000000000000000000000000000000000000000000000000000815260040161064290611154565b60405180910390fd5b600060016000836fffffffffffffffffffffffffffffffff166fffffffffffffffffffffffffffffffff1681526020019081526020016000206040518060a00160405290816000820160009054906101000a90046fffffffffffffffffffffffffffffffff166fffffffffffffffffffffffffffffffff166fffffffffffffffffffffffffffffffff1681526020016001820180546106e990610eca565b80601f016020809104026020016040519081016040528092919081815260200182805461071590610eca565b80156107625780601f1061073757610100808354040283529160200191610762565b820191906000526020600020905b81548152906001019060200180831161074557829003601f168201915b5050505050815260200160028201805461077b90610eca565b80601f01602080910402602001604051908101604052809291908181526020018280546107a790610eca565b80156107f45780601f106107c9576101008083540402835291602001916107f4565b820191906000526020600020905b8154815290600101906020018083116107d757829003601f168201915b50505050508152602001600382015481526020016004820160009054906101000a900473ffffffffffffffffffffffffffffffffffffffff1673ffffffffffffffffffffffffffffffffffffffff1673ffffffffffffffffffffffffffffffffffffffff16815250509050600080826080015173ffffffffffffffffffffffffffffffffffffffff163460405161088a906111a5565b60006040518083038185875af1925050503d80600081146108c7576040519150601f19603f3d011682016040523d82523d6000602084013e6108cc565b606091505b509150915034836060018181516108e391906111ba565b915081815250508260016000866fffffffffffffffffffffffffffffffff166fffffffffffffffffffffffffffffffff16815260200190815260200160002060008201518160000160006101000a8154816fffffffffffffffffffffffffffffffff02191690836fffffffffffffffffffffffffffffffff160217905550602082015181600101908051906020019061097d929190610a44565b50604082015181600201908051906020019061099a929190610a44565b506060820151816003015560808201518160040160006101000a81548173ffffffffffffffffffffffffffffffffffffffff021916908373ffffffffffffffffffffffffffffffffffffffff1602179055509050507f3c9b36ace5a0f3c83f94b31b9a7902bc58d7520935a695b8ec018f0acbe2b12d848460200151856040015186606001518760800151604051610a36959493929190610c72565b60405180910390a150505050565b828054610a5090610eca565b90600052602060002090601f016020900481019282610a725760008555610ab9565b82601f10610a8b57805160ff1916838001178555610ab9565b82800160010185558215610ab9579182015b82811115610ab8578251825591602001919060010190610a9d565b5b509050610ac69190610aca565b5090565b5b80821115610ae3576000816000905550600101610acb565b5090565b6000604051905090565b600080fd5b600080fd5b60006fffffffffffffffffffffffffffffffff82169050919050565b610b2081610afb565b8114610b2b57600080fd5b50565b600081359050610b3d81610b17565b92915050565b600060208284031215610b5957610b58610af1565b5b6000610b6784828501610b2e565b91505092915050565b610b7981610afb565b82525050565b600081519050919050565b600082825260208201905092915050565b60005b83811015610bb9578082015181840152602081019050610b9e565b83811115610bc8576000848401525b50505050565b6000601f19601f8301169050919050565b6000610bea82610b7f565b610bf48185610b8a565b9350610c04818560208601610b9b565b610c0d81610bce565b840191505092915050565b6000819050919050565b610c2b81610c18565b82525050565b600073ffffffffffffffffffffffffffffffffffffffff82169050919050565b6000610c5c82610c31565b9050919050565b610c6c81610c51565b82525050565b600060a082019050610c876000830188610b70565b8181036020830152610c998187610bdf565b90508181036040830152610cad8186610bdf565b9050610cbc6060830185610c22565b610cc96080830184610c63565b9695505050505050565b6000602082019050610ce86000830184610b70565b92915050565b600080fd5b600080fd5b7f4e487b7100000000000000000000000000000000000000000000000000000000600052604160045260246000fd5b610d3082610bce565b810181811067ffffffffffffffff82111715610d4f57610d4e610cf8565b5b80604052505050565b6000610d62610ae7565b9050610d6e8282610d27565b919050565b600067ffffffffffffffff821115610d8e57610d8d610cf8565b5b610d9782610bce565b9050602081019050919050565b82818337600083830152505050565b6000610dc6610dc184610d73565b610d58565b905082815260208101848484011115610de257610de1610cf3565b5b610ded848285610da4565b509392505050565b600082601f830112610e0a57610e09610cee565b5b8135610e1a848260208601610db3565b91505092915050565b60008060408385031215610e3a57610e39610af1565b5b600083013567ffffffffffffffff811115610e5857610e57610af6565b5b610e6485828601610df5565b925050602083013567ffffffffffffffff811115610e8557610e84610af6565b5b610e9185828601610df5565b9150509250929050565b7f4e487b7100000000000000000000000000000000000000000000000000000000600052602260045260246000fd5b60006002820490506001821680610ee257607f821691505b60208210811415610ef657610ef5610e9b565b5b50919050565b7f596f752073686f756c642070726f7669646520616e20696d6167650000000000600082015250565b6000610f32601b83610b8a565b9150610f3d82610efc565b602082019050919050565b60006020820190508181036000830152610f6181610f25565b9050919050565b7f596f752073686f756c642070726f766964652061206465736372697074696f6e60008201527f20746f2074686520696d61676500000000000000000000000000000000000000602082015250565b6000610fc4602d83610b8a565b9150610fcf82610f68565b604082019050919050565b60006020820190508181036000830152610ff381610fb7565b9050919050565b7f4e487b7100000000000000000000000000000000000000000000000000000000600052601160045260246000fd5b600061103482610afb565b91506fffffffffffffffffffffffffffffffff82141561105757611056610ffa565b5b600182019050919050565b6000819050919050565b6000819050919050565b600061109161108c61108784611062565b61106c565b610c18565b9050919050565b6110a181611076565b82525050565b600060a0820190506110bc6000830188610b70565b81810360208301526110ce8187610bdf565b905081810360408301526110e28186610bdf565b90506110f16060830185611098565b6110fe6080830184610c63565b9695505050505050565b7f54686174206973206e6f7420612076616c696420696d61676500000000000000600082015250565b600061113e601983610b8a565b915061114982611108565b602082019050919050565b6000602082019050818103600083015261116d81611131565b9050919050565b600081905092915050565b50565b600061118f600083611174565b915061119a8261117f565b600082019050919050565b60006111b082611182565b9150819050919050565b60006111c582610c18565b91506111d083610c18565b9250827fffffffffffffffffffffffffffffffffffffffffffffffffffffffffffffffff0382111561120557611204610ffa565b5b82820190509291505056fea2646970667358221220342fef1d25ac0e321bd73a9abff0062749e998aa5e816a73f532cd91001ddce264736f6c634300080b0033",
  "immutableReferences": {},
  "source": "// SPDX-License-Identifier: GPL-3.0\n\npragma solidity >0.7.0 <=0.9.0;\n\ncontract Decentragram {\n\n\tuint128 public imageCount = 0;\n\tmapping(uint128 => Image) public images;\n\n\tstruct Image {\n\t\tuint128 id;\n\t\tstring hash;\n\t\tstring description;\n\t\tuint tipAmount;\n\t\taddress author;\n\t}\n\n\tevent ImageCreated (\n\t\tuint128 id,\n\t\tstring hash,\n\t\tstring description,\n\t\tuint tipAmount,\n\t\taddress author\n\t);\n\n\tevent ImageTipped (\n\t\tuint128 id,\n\t\tstring hash,\n\t\tstring description,\n\t\tuint tipAmount,\n\t\taddress author\n\t);\n\n\tconstructor () {}\n\n\tfunction uploadImage(string memory _imgHash, string memory _description)public { \n\trequire(bytes(_imgHash).length > 0 , \"You should provide an image\");\n\trequire(bytes(_description).length > 0, \"You should provide a description to the image\");\n\trequire(msg.sender != address(0));\n\n\timageCount++;\n\n\timages[imageCount] = Image(imageCount, _imgHash, _description, 0, msg.sender);\n\n\temit ImageCreated(imageCount, _imgHash, _description, 0, msg.sender);\n}\n\n\tfunction tipImageOwner(uint128 _id) public payable {\n\t\n\trequire(_id > 0 && _id <= imageCount, \"That is not a valid image\");\n\n\tImage memory _image = images[_id];\n\n    (bool sent, bytes memory data) = _image.author.call{value: msg.value}(\"\");\n\n\t_image.tipAmount += msg.value;\n\t\n\t//We overrode the last struct, but we maintained the description parameter since we did not overrode it specifically.\n\timages[_id] = _image;\n\n\temit ImageTipped(_id, _image.hash, _image.description, _image.tipAmount, _image.author);\n\t\n}\n\n}\n\n",
  "sourcePath": "/home/caiosa/react-app/src/contracts/Decentragram.sol",
  "compiler": {
    "name": "solc",
    "version": "0.8.11+commit.d7f03943.Emscripten.clang"
  },
  "schemaVersion": "3.4.4",
  "updatedAt": "2022-01-31T20:26:16.221Z",
  "devdoc": {
    "kind": "dev",
    "methods": {},
    "version": 1
  },
  "userdoc": {
    "kind": "user",
    "methods": {},
    "version": 1
  }
}